{
  "contractName": "DutchAuction",
  "abi": [
    {
      "inputs": [
        {
          "internalType": "address",
          "name": "_tokenAddress",
          "type": "address"
        },
        {
          "internalType": "uint256",
          "name": "_initialPrice",
          "type": "uint256"
        },
        {
          "internalType": "uint256",
          "name": "_reservePrice",
          "type": "uint256"
        },
        {
          "internalType": "uint256",
          "name": "_priceDecreaseRate",
          "type": "uint256"
        },
        {
          "internalType": "uint256",
          "name": "_priceDecreaseInterval",
          "type": "uint256"
        },
        {
          "internalType": "uint256",
          "name": "_duration",
          "type": "uint256"
        },
        {
          "internalType": "uint256",
          "name": "_totalTokens",
          "type": "uint256"
        }
      ],
      "stateMutability": "nonpayable",
      "type": "constructor"
    },
    {
      "anonymous": false,
      "inputs": [
        {
          "indexed": false,
          "internalType": "uint256",
          "name": "finalPrice",
          "type": "uint256"
        }
      ],
      "name": "AuctionEnded",
      "type": "event"
    },
    {
      "anonymous": false,
      "inputs": [
        {
          "indexed": false,
          "internalType": "address",
          "name": "bidder",
          "type": "address"
        },
        {
          "indexed": false,
          "internalType": "uint256",
          "name": "tokensAllocated",
          "type": "uint256"
        },
        {
          "indexed": false,
          "internalType": "uint256",
          "name": "amountRefunded",
          "type": "uint256"
        }
      ],
      "name": "TokensDistributed",
      "type": "event"
    },
    {
      "anonymous": false,
      "inputs": [
        {
          "indexed": false,
          "internalType": "address",
          "name": "bidder",
          "type": "address"
        },
        {
          "indexed": false,
          "internalType": "uint256",
          "name": "amountInvested",
          "type": "uint256"
        },
        {
          "indexed": false,
          "internalType": "uint256",
          "name": "tokensToBeAllocated",
          "type": "uint256"
        }
      ],
      "name": "TokensPurchased",
      "type": "event"
    },
    {
      "inputs": [],
      "name": "auctionEndTime",
      "outputs": [
        {
          "internalType": "uint256",
          "name": "",
          "type": "uint256"
        }
      ],
      "stateMutability": "view",
      "type": "function",
      "constant": true
    },
    {
      "inputs": [],
      "name": "auctionStartTime",
      "outputs": [
        {
          "internalType": "uint256",
          "name": "",
          "type": "uint256"
        }
      ],
      "stateMutability": "view",
      "type": "function",
      "constant": true
    },
    {
      "inputs": [],
      "name": "auctionToken",
      "outputs": [
        {
          "internalType": "contract AuctionToken",
          "name": "",
          "type": "address"
        }
      ],
      "stateMutability": "view",
      "type": "function",
      "constant": true
    },
    {
      "inputs": [
        {
          "internalType": "address",
          "name": "",
          "type": "address"
        }
      ],
      "name": "bidders",
      "outputs": [
        {
          "internalType": "uint256",
          "name": "investedAmount",
          "type": "uint256"
        },
        {
          "internalType": "uint256",
          "name": "tokensOwned",
          "type": "uint256"
        }
      ],
      "stateMutability": "view",
      "type": "function",
      "constant": true
    },
    {
      "inputs": [],
      "name": "ended",
      "outputs": [
        {
          "internalType": "bool",
          "name": "",
          "type": "bool"
        }
      ],
      "stateMutability": "view",
      "type": "function",
      "constant": true
    },
    {
      "inputs": [],
      "name": "finalPrice",
      "outputs": [
        {
          "internalType": "uint256",
          "name": "",
          "type": "uint256"
        }
      ],
      "stateMutability": "view",
      "type": "function",
      "constant": true
    },
    {
      "inputs": [],
      "name": "initialPrice",
      "outputs": [
        {
          "internalType": "uint256",
          "name": "",
          "type": "uint256"
        }
      ],
      "stateMutability": "view",
      "type": "function",
      "constant": true
    },
    {
      "inputs": [],
      "name": "priceDecreaseInterval",
      "outputs": [
        {
          "internalType": "uint256",
          "name": "",
          "type": "uint256"
        }
      ],
      "stateMutability": "view",
      "type": "function",
      "constant": true
    },
    {
      "inputs": [],
      "name": "priceDecreaseRate",
      "outputs": [
        {
          "internalType": "uint256",
          "name": "",
          "type": "uint256"
        }
      ],
      "stateMutability": "view",
      "type": "function",
      "constant": true
    },
    {
      "inputs": [],
      "name": "reservePrice",
      "outputs": [
        {
          "internalType": "uint256",
          "name": "",
          "type": "uint256"
        }
      ],
      "stateMutability": "view",
      "type": "function",
      "constant": true
    },
    {
      "inputs": [],
      "name": "seller",
      "outputs": [
        {
          "internalType": "address payable",
          "name": "",
          "type": "address"
        }
      ],
      "stateMutability": "view",
      "type": "function",
      "constant": true
    },
    {
      "inputs": [],
      "name": "totalTokens",
      "outputs": [
        {
          "internalType": "uint256",
          "name": "",
          "type": "uint256"
        }
      ],
      "stateMutability": "view",
      "type": "function",
      "constant": true
    },
    {
      "inputs": [],
      "name": "currentPrice",
      "outputs": [
        {
          "internalType": "uint256",
          "name": "",
          "type": "uint256"
        }
      ],
      "stateMutability": "view",
      "type": "function",
      "constant": true
    },
    {
      "inputs": [],
      "name": "buyTokens",
      "outputs": [],
      "stateMutability": "payable",
      "type": "function",
      "payable": true
    }
  ],
  "bytecode": "0x608060405234801562000010575f80fd5b506040516200122e3803806200122e83398181016040528101906200003691906200019f565b865f806101000a81548173ffffffffffffffffffffffffffffffffffffffff021916908373ffffffffffffffffffffffffffffffffffffffff1602179055503360015f6101000a81548173ffffffffffffffffffffffffffffffffffffffff021916908373ffffffffffffffffffffffffffffffffffffffff160217905550856002819055508460038190555083600481905550826005819055504260068190555081600654620000e891906200027a565b6007819055508060088190555050505050505050620002b4565b5f80fd5b5f73ffffffffffffffffffffffffffffffffffffffff82169050919050565b5f620001318262000106565b9050919050565b620001438162000125565b81146200014e575f80fd5b50565b5f81519050620001618162000138565b92915050565b5f819050919050565b6200017b8162000167565b811462000186575f80fd5b50565b5f81519050620001998162000170565b92915050565b5f805f805f805f60e0888a031215620001bd57620001bc62000102565b5b5f620001cc8a828b0162000151565b9750506020620001df8a828b0162000189565b9650506040620001f28a828b0162000189565b9550506060620002058a828b0162000189565b9450506080620002188a828b0162000189565b93505060a06200022b8a828b0162000189565b92505060c06200023e8a828b0162000189565b91505092959891949750929550565b7f4e487b71000000000000000000000000000000000000000000000000000000005f52601160045260245ffd5b5f620002868262000167565b9150620002938362000167565b9250828201905080821115620002ae57620002ad6200024d565b5b92915050565b610f6c80620002c25f395ff3fe6080604052600436106100dc575f3560e01c80639d1b464a1161007e578063db2e1eed11610058578063db2e1eed14610264578063eb54f9ec1461028e578063eecb24ec146102b8578063fcc8f793146102e2576100dc565b80639d1b464a14610206578063a6b513ee14610230578063d0febe4c1461025a576100dc565b80634b449cba116100ba5780634b449cba1461015e5780637cc58a96146101885780637e1c0c09146101b257806399fdb320146101dc576100dc565b806308551a53146100e057806312fa6feb1461010a5780631d0806ae14610134575b5f80fd5b3480156100eb575f80fd5b506100f461031f565b6040516101019190610a6f565b60405180910390f35b348015610115575f80fd5b5061011e610344565b60405161012b9190610aa2565b60405180910390f35b34801561013f575f80fd5b50610148610356565b6040516101559190610ad3565b60405180910390f35b348015610169575f80fd5b5061017261035c565b60405161017f9190610ad3565b60405180910390f35b348015610193575f80fd5b5061019c610362565b6040516101a99190610ad3565b60405180910390f35b3480156101bd575f80fd5b506101c6610368565b6040516101d39190610ad3565b60405180910390f35b3480156101e7575f80fd5b506101f061036e565b6040516101fd9190610b47565b60405180910390f35b348015610211575f80fd5b5061021a610391565b6040516102279190610ad3565b60405180910390f35b34801561023b575f80fd5b50610244610413565b6040516102519190610ad3565b60405180910390f35b610262610419565b005b34801561026f575f80fd5b506102786106ec565b6040516102859190610ad3565b60405180910390f35b348015610299575f80fd5b506102a26106f2565b6040516102af9190610ad3565b60405180910390f35b3480156102c3575f80fd5b506102cc6106f8565b6040516102d99190610ad3565b60405180910390f35b3480156102ed575f80fd5b5061030860048036038101906103039190610b9f565b6106fe565b604051610316929190610bca565b60405180910390f35b60015f9054906101000a900473ffffffffffffffffffffffffffffffffffffffff1681565b60095f9054906101000a900460ff1681565b60025481565b60075481565b60055481565b60085481565b5f8054906101000a900473ffffffffffffffffffffffffffffffffffffffff1681565b5f600754421161040a575f600654426103aa9190610c1e565b90505f600454600554836103be9190610c7e565b6103c89190610cae565b90505f81600254116103dc576003546103eb565b816002546103ea9190610c1e565b5b905060035481116103fe57600354610400565b805b9350505050610410565b60035490505b90565b600a5481565b60075442111561045e576040517f08c379a000000000000000000000000000000000000000000000000000000000815260040161045590610d49565b60405180910390fd5b60095f9054906101000a900460ff16156104ad576040517f08c379a00000000000000000000000000000000000000000000000000000000081526004016104a490610db1565b60405180910390fd5b5f6104b6610391565b90505f81346104c59190610c7e565b905060085481106104d65760085490505b5f600b5f3373ffffffffffffffffffffffffffffffffffffffff1673ffffffffffffffffffffffffffffffffffffffff1681526020019081526020015f205f015414801561056357505f600b5f3373ffffffffffffffffffffffffffffffffffffffff1673ffffffffffffffffffffffffffffffffffffffff1681526020019081526020015f2060010154145b156105c957600c33908060018154018082558091505060019003905f5260205f20015f9091909190916101000a81548173ffffffffffffffffffffffffffffffffffffffff021916908373ffffffffffffffffffffffffffffffffffffffff1602179055505b34600b5f3373ffffffffffffffffffffffffffffffffffffffff1673ffffffffffffffffffffffffffffffffffffffff1681526020019081526020015f205f015f8282546106179190610dcf565b9250508190555080600b5f3373ffffffffffffffffffffffffffffffffffffffff1673ffffffffffffffffffffffffffffffffffffffff1681526020019081526020015f206001015f82825461066d9190610dcf565b925050819055508060085f8282546106859190610c1e565b925050819055507f8fafebcaf9d154343dad25669bfa277f4fbacd7ac6b0c4fed522580e040a0f333334836040516106bf93929190610e11565b60405180910390a15f60085414806106d957506007544210155b156106e8576106e78261071e565b5b5050565b60035481565b60065481565b60045481565b600b602052805f5260405f205f91509050805f0154908060010154905082565b600160095f6101000a81548160ff02191690831515021790555080600a819055505f5b600c805490508110156109f3575f600b5f600c848154811061076657610765610e46565b5b905f5260205f20015f9054906101000a900473ffffffffffffffffffffffffffffffffffffffff1673ffffffffffffffffffffffffffffffffffffffff1673ffffffffffffffffffffffffffffffffffffffff1681526020019081526020015f2090505f600a5482600101546107dc9190610cae565b90505f81835f0154116107ef575f6107ff565b81835f01546107fe9190610c1e565b5b90505f81111561088957600c848154811061081d5761081c610e46565b5b905f5260205f20015f9054906101000a900473ffffffffffffffffffffffffffffffffffffffff1673ffffffffffffffffffffffffffffffffffffffff166108fc8290811502906040515f60405180830381858888f19350505050158015610887573d5f803e3d5ffd5b505b5f8054906101000a900473ffffffffffffffffffffffffffffffffffffffff1673ffffffffffffffffffffffffffffffffffffffff1663a9059cbb600c86815481106108d8576108d7610e46565b5b905f5260205f20015f9054906101000a900473ffffffffffffffffffffffffffffffffffffffff1685600101546040518363ffffffff1660e01b8152600401610922929190610e73565b6020604051808303815f875af115801561093e573d5f803e3d5ffd5b505050506040513d601f19601f820116820180604052508101906109629190610ec4565b507ff75d5c8724380d126d0ce1ef2c57b7e856e7fe00051f6184966b31323463cf12600c858154811061099857610997610e46565b5b905f5260205f20015f9054906101000a900473ffffffffffffffffffffffffffffffffffffffff168460010154836040516109d593929190610e11565b60405180910390a150505080806109eb90610eef565b915050610741565b507f45806e512b1f4f10e33e8b3cb64d1d11d998d8c554a95e0841fc1c701278bd5d600a54604051610a259190610ad3565b60405180910390a150565b5f73ffffffffffffffffffffffffffffffffffffffff82169050919050565b5f610a5982610a30565b9050919050565b610a6981610a4f565b82525050565b5f602082019050610a825f830184610a60565b92915050565b5f8115159050919050565b610a9c81610a88565b82525050565b5f602082019050610ab55f830184610a93565b92915050565b5f819050919050565b610acd81610abb565b82525050565b5f602082019050610ae65f830184610ac4565b92915050565b5f819050919050565b5f610b0f610b0a610b0584610a30565b610aec565b610a30565b9050919050565b5f610b2082610af5565b9050919050565b5f610b3182610b16565b9050919050565b610b4181610b27565b82525050565b5f602082019050610b5a5f830184610b38565b92915050565b5f80fd5b5f610b6e82610a30565b9050919050565b610b7e81610b64565b8114610b88575f80fd5b50565b5f81359050610b9981610b75565b92915050565b5f60208284031215610bb457610bb3610b60565b5b5f610bc184828501610b8b565b91505092915050565b5f604082019050610bdd5f830185610ac4565b610bea6020830184610ac4565b9392505050565b7f4e487b71000000000000000000000000000000000000000000000000000000005f52601160045260245ffd5b5f610c2882610abb565b9150610c3383610abb565b9250828203905081811115610c4b57610c4a610bf1565b5b92915050565b7f4e487b71000000000000000000000000000000000000000000000000000000005f52601260045260245ffd5b5f610c8882610abb565b9150610c9383610abb565b925082610ca357610ca2610c51565b5b828204905092915050565b5f610cb882610abb565b9150610cc383610abb565b9250828202610cd181610abb565b91508282048414831517610ce857610ce7610bf1565b5b5092915050565b5f82825260208201905092915050565b7f41756374696f6e2068617320616c726561647920656e6465642e0000000000005f82015250565b5f610d33601a83610cef565b9150610d3e82610cff565b602082019050919050565b5f6020820190508181035f830152610d6081610d27565b9050919050565b7f41756374696f6e20616c726561647920656e6465642e000000000000000000005f82015250565b5f610d9b601683610cef565b9150610da682610d67565b602082019050919050565b5f6020820190508181035f830152610dc881610d8f565b9050919050565b5f610dd982610abb565b9150610de483610abb565b9250828201905080821115610dfc57610dfb610bf1565b5b92915050565b610e0b81610b64565b82525050565b5f606082019050610e245f830186610e02565b610e316020830185610ac4565b610e3e6040830184610ac4565b949350505050565b7f4e487b71000000000000000000000000000000000000000000000000000000005f52603260045260245ffd5b5f604082019050610e865f830185610e02565b610e936020830184610ac4565b9392505050565b610ea381610a88565b8114610ead575f80fd5b50565b5f81519050610ebe81610e9a565b92915050565b5f60208284031215610ed957610ed8610b60565b5b5f610ee684828501610eb0565b91505092915050565b5f610ef982610abb565b91507fffffffffffffffffffffffffffffffffffffffffffffffffffffffffffffffff8203610f2b57610f2a610bf1565b5b60018201905091905056fea264697066735822122017ff41cff5f7d05e5fdbdf7b99bc021411bd1dbe057c5fcba45fdf368cc499e564736f6c63430008150033",
  "immutableReferences": {},
  "source": "// SPDX-License-Identifier: MIT\npragma solidity ^0.8.0;\n\nimport \"./AuctionToken.sol\";\n\ncontract DutchAuction {\n    AuctionToken public auctionToken;\n    address payable public seller;\n    uint public initialPrice;\n    uint public reservePrice;\n    uint public priceDecreaseRate;\n    uint public priceDecreaseInterval;\n    uint public auctionStartTime;\n    uint public auctionEndTime;\n    uint public totalTokens; // Total tokens available in the auction\n    bool public ended;\n    uint public finalPrice; // This will store the final confirmed price\n\n    struct Bidder {\n        uint investedAmount; // Amount invested by the bidder\n        uint tokensOwned;    // Tokens to be allocated to the bidder\n    }\n\n    mapping(address => Bidder) public bidders;\n    address[] private bidderAddresses;\n\n    event TokensPurchased(address bidder, uint amountInvested, uint tokensToBeAllocated);\n    event TokensDistributed(address bidder, uint tokensAllocated, uint amountRefunded);\n    event AuctionEnded(uint finalPrice);\n\n    constructor(\n        address _tokenAddress,\n        uint _initialPrice,\n        uint _reservePrice,\n        uint _priceDecreaseRate,\n        uint _priceDecreaseInterval,\n        uint _duration,\n        uint _totalTokens\n    ) {\n        auctionToken = AuctionToken(_tokenAddress);\n        seller = payable(msg.sender);\n        initialPrice = _initialPrice;\n        reservePrice = _reservePrice;\n        priceDecreaseRate = _priceDecreaseRate;\n        priceDecreaseInterval = _priceDecreaseInterval;\n        auctionStartTime = block.timestamp;\n        auctionEndTime = auctionStartTime + _duration;\n        totalTokens = _totalTokens;\n    }\n\n    // Calculate the current price based on time elapsed and decrease rate\n    function currentPrice() public view returns (uint) {\n        if (block.timestamp <= auctionEndTime) {\n            uint elapsed = block.timestamp - auctionStartTime;\n            uint priceDecrease = (elapsed / priceDecreaseInterval) * priceDecreaseRate;\n            uint _currentPrice = initialPrice > priceDecrease ? initialPrice - priceDecrease : reservePrice;\n            return _currentPrice > reservePrice ? _currentPrice : reservePrice;\n        } else {\n            return reservePrice;\n        }\n    }\n\n    // Function to buy tokens at the current price\n    function buyTokens() external payable {\n        require(block.timestamp <= auctionEndTime, \"Auction has already ended.\");\n        require(!ended, \"Auction already ended.\");\n        \n        uint _currentPrice = currentPrice();\n        uint tokensToBuy = msg.value / _currentPrice;\n        if (tokensToBuy >= totalTokens)\n        {\n            tokensToBuy = totalTokens;\n        }\n        // require(tokensToBuy <= totalTokens, \"Not enough tokens available\");\n\n        // Update bidder's record in the struct\n        if (bidders[msg.sender].investedAmount == 0 && bidders[msg.sender].tokensOwned == 0) {\n            // Assuming a new bidder if no funds or tokens were previously recorded\n            bidderAddresses.push(msg.sender);\n        }\n        bidders[msg.sender].investedAmount += msg.value;\n        bidders[msg.sender].tokensOwned += tokensToBuy;\n        totalTokens -= tokensToBuy;\n\n        emit TokensPurchased(msg.sender, msg.value, tokensToBuy);\n\n        if (totalTokens == 0 || block.timestamp >= auctionEndTime) {\n            finalizeAuction(_currentPrice);\n        }\n    }\n\n    // Finalize the auction, distribute tokens and refund excess funds\n    function finalizeAuction(uint fP) private {\n        ended = true;\n        finalPrice = fP;\n        for (uint i = 0; i < bidderAddresses.length; i++) {\n            Bidder storage bidder = bidders[bidderAddresses[i]];\n            uint totalCost = bidder.tokensOwned * finalPrice;\n            uint refund = bidder.investedAmount > totalCost ? bidder.investedAmount - totalCost : 0;\n\n            if (refund > 0) {\n                payable(bidderAddresses[i]).transfer(refund);\n            }\n\n            auctionToken.transfer(bidderAddresses[i], bidder.tokensOwned);\n            emit TokensDistributed(bidderAddresses[i], bidder.tokensOwned, refund);\n        }\n\n        emit AuctionEnded(finalPrice);\n    }\n\n}\n",
  "sourcePath": "/Users/tirthoza/Desktop/blockchain_project/dutch-auction/contracts/DutchAuction.sol",
  "compiler": {
    "name": "solc",
    "version": "0.8.21+commit.d9974bed.Emscripten.clang"
  },
  "schemaVersion": "3.4.16",
  "updatedAt": "2024-11-02T15:59:46.358Z",
  "networkType": "ethereum",
  "devdoc": {
    "kind": "dev",
    "methods": {},
    "version": 1
  },
  "userdoc": {
    "kind": "user",
    "methods": {},
    "version": 1
  }
}