{
  "contractName": "DutchAuction",
  "abi": [
    {
      "inputs": [
        {
          "internalType": "address",
          "name": "_tokenAddress",
          "type": "address"
        },
        {
          "internalType": "uint256",
          "name": "_initialPrice",
          "type": "uint256"
        },
        {
          "internalType": "uint256",
          "name": "_reservePrice",
          "type": "uint256"
        },
        {
          "internalType": "uint256",
          "name": "_priceDecreaseRate",
          "type": "uint256"
        },
        {
          "internalType": "uint256",
          "name": "_priceDecreaseInterval",
          "type": "uint256"
        },
        {
          "internalType": "uint256",
          "name": "_duration",
          "type": "uint256"
        },
        {
          "internalType": "uint256",
          "name": "_totalTokens",
          "type": "uint256"
        }
      ],
      "stateMutability": "nonpayable",
      "type": "constructor"
    },
    {
      "anonymous": false,
      "inputs": [
        {
          "indexed": false,
          "internalType": "uint256",
          "name": "finalPrice",
          "type": "uint256"
        }
      ],
      "name": "AuctionEnded",
      "type": "event"
    },
    {
      "anonymous": false,
      "inputs": [
        {
          "indexed": false,
          "internalType": "address",
          "name": "bidder",
          "type": "address"
        },
        {
          "indexed": false,
          "internalType": "uint256",
          "name": "tokensAllocated",
          "type": "uint256"
        },
        {
          "indexed": false,
          "internalType": "uint256",
          "name": "amountRefunded",
          "type": "uint256"
        }
      ],
      "name": "TokensDistributed",
      "type": "event"
    },
    {
      "anonymous": false,
      "inputs": [
        {
          "indexed": false,
          "internalType": "address",
          "name": "bidder",
          "type": "address"
        },
        {
          "indexed": false,
          "internalType": "uint256",
          "name": "amountInvested",
          "type": "uint256"
        },
        {
          "indexed": false,
          "internalType": "uint256",
          "name": "tokensToBeAllocated",
          "type": "uint256"
        }
      ],
      "name": "TokensPurchased",
      "type": "event"
    },
    {
      "inputs": [],
      "name": "auctionEndTime",
      "outputs": [
        {
          "internalType": "uint256",
          "name": "",
          "type": "uint256"
        }
      ],
      "stateMutability": "view",
      "type": "function",
      "constant": true
    },
    {
      "inputs": [],
      "name": "auctionStartTime",
      "outputs": [
        {
          "internalType": "uint256",
          "name": "",
          "type": "uint256"
        }
      ],
      "stateMutability": "view",
      "type": "function",
      "constant": true
    },
    {
      "inputs": [],
      "name": "auctionToken",
      "outputs": [
        {
          "internalType": "contract AuctionToken",
          "name": "",
          "type": "address"
        }
      ],
      "stateMutability": "view",
      "type": "function",
      "constant": true
    },
    {
      "inputs": [
        {
          "internalType": "address",
          "name": "",
          "type": "address"
        }
      ],
      "name": "bidders",
      "outputs": [
        {
          "internalType": "uint256",
          "name": "investedAmount",
          "type": "uint256"
        },
        {
          "internalType": "uint256",
          "name": "tokensOwned",
          "type": "uint256"
        }
      ],
      "stateMutability": "view",
      "type": "function",
      "constant": true
    },
    {
      "inputs": [],
      "name": "ended",
      "outputs": [
        {
          "internalType": "bool",
          "name": "",
          "type": "bool"
        }
      ],
      "stateMutability": "view",
      "type": "function",
      "constant": true
    },
    {
      "inputs": [],
      "name": "finalPrice",
      "outputs": [
        {
          "internalType": "uint256",
          "name": "",
          "type": "uint256"
        }
      ],
      "stateMutability": "view",
      "type": "function",
      "constant": true
    },
    {
      "inputs": [],
      "name": "initialPrice",
      "outputs": [
        {
          "internalType": "uint256",
          "name": "",
          "type": "uint256"
        }
      ],
      "stateMutability": "view",
      "type": "function",
      "constant": true
    },
    {
      "inputs": [],
      "name": "priceDecreaseInterval",
      "outputs": [
        {
          "internalType": "uint256",
          "name": "",
          "type": "uint256"
        }
      ],
      "stateMutability": "view",
      "type": "function",
      "constant": true
    },
    {
      "inputs": [],
      "name": "priceDecreaseRate",
      "outputs": [
        {
          "internalType": "uint256",
          "name": "",
          "type": "uint256"
        }
      ],
      "stateMutability": "view",
      "type": "function",
      "constant": true
    },
    {
      "inputs": [],
      "name": "reservePrice",
      "outputs": [
        {
          "internalType": "uint256",
          "name": "",
          "type": "uint256"
        }
      ],
      "stateMutability": "view",
      "type": "function",
      "constant": true
    },
    {
      "inputs": [],
      "name": "seller",
      "outputs": [
        {
          "internalType": "address payable",
          "name": "",
          "type": "address"
        }
      ],
      "stateMutability": "view",
      "type": "function",
      "constant": true
    },
    {
      "inputs": [],
      "name": "totalTokens",
      "outputs": [
        {
          "internalType": "uint256",
          "name": "",
          "type": "uint256"
        }
      ],
      "stateMutability": "view",
      "type": "function",
      "constant": true
    },
    {
      "inputs": [],
      "name": "currentPrice",
      "outputs": [
        {
          "internalType": "uint256",
          "name": "",
          "type": "uint256"
        }
      ],
      "stateMutability": "view",
      "type": "function",
      "constant": true
    },
    {
      "inputs": [],
      "name": "buyTokens",
      "outputs": [],
      "stateMutability": "payable",
      "type": "function",
      "payable": true
    }
  ],
  "bytecode": "0x608060405234801562000010575f80fd5b5060405162001c3238038062001c3283398181016040528101906200003691906200019f565b865f806101000a81548173ffffffffffffffffffffffffffffffffffffffff021916908373ffffffffffffffffffffffffffffffffffffffff1602179055503360015f6101000a81548173ffffffffffffffffffffffffffffffffffffffff021916908373ffffffffffffffffffffffffffffffffffffffff160217905550856002819055508460038190555083600481905550826005819055504260068190555081600654620000e891906200027a565b6007819055508060088190555050505050505050620002b4565b5f80fd5b5f73ffffffffffffffffffffffffffffffffffffffff82169050919050565b5f620001318262000106565b9050919050565b620001438162000125565b81146200014e575f80fd5b50565b5f81519050620001618162000138565b92915050565b5f819050919050565b6200017b8162000167565b811462000186575f80fd5b50565b5f81519050620001998162000170565b92915050565b5f805f805f805f60e0888a031215620001bd57620001bc62000102565b5b5f620001cc8a828b0162000151565b9750506020620001df8a828b0162000189565b9650506040620001f28a828b0162000189565b9550506060620002058a828b0162000189565b9450506080620002188a828b0162000189565b93505060a06200022b8a828b0162000189565b92505060c06200023e8a828b0162000189565b91505092959891949750929550565b7f4e487b71000000000000000000000000000000000000000000000000000000005f52601160045260245ffd5b5f620002868262000167565b9150620002938362000167565b9250828201905080821115620002ae57620002ad6200024d565b5b92915050565b61197080620002c25f395ff3fe6080604052600436106100dc575f3560e01c80639d1b464a1161007e578063db2e1eed11610058578063db2e1eed14610264578063eb54f9ec1461028e578063eecb24ec146102b8578063fcc8f793146102e2576100dc565b80639d1b464a14610206578063a6b513ee14610230578063d0febe4c1461025a576100dc565b80634b449cba116100ba5780634b449cba1461015e5780637cc58a96146101885780637e1c0c09146101b257806399fdb320146101dc576100dc565b806308551a53146100e057806312fa6feb1461010a5780631d0806ae14610134575b5f80fd5b3480156100eb575f80fd5b506100f461031f565b604051610101919061114a565b60405180910390f35b348015610115575f80fd5b5061011e610344565b60405161012b919061117d565b60405180910390f35b34801561013f575f80fd5b50610148610356565b60405161015591906111ae565b60405180910390f35b348015610169575f80fd5b5061017261035c565b60405161017f91906111ae565b60405180910390f35b348015610193575f80fd5b5061019c610362565b6040516101a991906111ae565b60405180910390f35b3480156101bd575f80fd5b506101c6610368565b6040516101d391906111ae565b60405180910390f35b3480156101e7575f80fd5b506101f061036e565b6040516101fd9190611222565b60405180910390f35b348015610211575f80fd5b5061021a610391565b60405161022791906111ae565b60405180910390f35b34801561023b575f80fd5b5061024461042f565b60405161025191906111ae565b60405180910390f35b610262610435565b005b34801561026f575f80fd5b506102786108e4565b60405161028591906111ae565b60405180910390f35b348015610299575f80fd5b506102a26108ea565b6040516102af91906111ae565b60405180910390f35b3480156102c3575f80fd5b506102cc6108f0565b6040516102d991906111ae565b60405180910390f35b3480156102ed575f80fd5b506103086004803603810190610303919061127a565b6108f6565b6040516103169291906112a5565b60405180910390f35b60015f9054906101000a900473ffffffffffffffffffffffffffffffffffffffff1681565b60095f9054906101000a900460ff1681565b60025481565b60075481565b60055481565b60085481565b5f8054906101000a900473ffffffffffffffffffffffffffffffffffffffff1681565b5f6007544211610426575f6103b16006544261091690919063ffffffff16565b90505f6103dd6004546103cf6005548561092b90919063ffffffff16565b61094090919063ffffffff16565b90505f81600254116103f157600354610407565b6104068260025461091690919063ffffffff16565b5b9050600354811161041a5760035461041c565b805b935050505061042c565b60035490505b90565b600a5481565b61043e42610955565b600754421115610483576040517f08c379a000000000000000000000000000000000000000000000000000000000815260040161047a90611326565b60405180910390fd5b61049a60095f9054906101000a900460ff166109ee565b60095f9054906101000a900460ff16156104e9576040517f08c379a00000000000000000000000000000000000000000000000000000000081526004016104e09061138e565b60405180910390fd5b6104f234610955565b5f3411610534576040517f08c379a000000000000000000000000000000000000000000000000000000000815260040161052b906113f6565b60405180910390fd5b5f61053d610391565b905061054881610955565b5f811161058a576040517f08c379a00000000000000000000000000000000000000000000000000000000081526004016105819061145e565b60405180910390fd5b5f61059e823461092b90919063ffffffff16565b90506105a981610955565b5f81116105eb576040517f08c379a00000000000000000000000000000000000000000000000000000000081526004016105e2906114c6565b60405180910390fd5b60085481106105fa5760085490505b5f600b5f3373ffffffffffffffffffffffffffffffffffffffff1673ffffffffffffffffffffffffffffffffffffffff1681526020019081526020015f205f015414801561068757505f600b5f3373ffffffffffffffffffffffffffffffffffffffff1673ffffffffffffffffffffffffffffffffffffffff1681526020019081526020015f2060010154145b156106ed57600c33908060018154018082558091505060019003905f5260205f20015f9091909190916101000a81548173ffffffffffffffffffffffffffffffffffffffff021916908373ffffffffffffffffffffffffffffffffffffffff1602179055505b61073f34600b5f3373ffffffffffffffffffffffffffffffffffffffff1673ffffffffffffffffffffffffffffffffffffffff1681526020019081526020015f205f0154610a8790919063ffffffff16565b600b5f3373ffffffffffffffffffffffffffffffffffffffff1673ffffffffffffffffffffffffffffffffffffffff1681526020019081526020015f205f01819055506107d581600b5f3373ffffffffffffffffffffffffffffffffffffffff1673ffffffffffffffffffffffffffffffffffffffff1681526020019081526020015f2060010154610a8790919063ffffffff16565b600b5f3373ffffffffffffffffffffffffffffffffffffffff1673ffffffffffffffffffffffffffffffffffffffff1681526020019081526020015f206001018190555061082e8160085461091690919063ffffffff16565b60088190555061083f600854610955565b5f6008541015610884576040517f08c379a000000000000000000000000000000000000000000000000000000000815260040161087b90611554565b60405180910390fd5b7f8fafebcaf9d154343dad25669bfa277f4fbacd7ac6b0c4fed522580e040a0f333334836040516108b793929190611581565b60405180910390a15f60085414806108d157506007544210155b156108e0576108df82610a9c565b5b5050565b60035481565b60065481565b60045481565b600b602052805f5260405f205f91509050805f0154908060010154905082565b5f818361092391906115e3565b905092915050565b5f81836109389190611643565b905092915050565b5f818361094d9190611673565b905092915050565b6109eb8160405160240161096991906111ae565b6040516020818303038152906040527ff82c50f1000000000000000000000000000000000000000000000000000000007bffffffffffffffffffffffffffffffffffffffffffffffffffffffff19166020820180517bffffffffffffffffffffffffffffffffffffffffffffffffffffffff8381831617835250505050610f88565b50565b610a8481604051602401610a02919061117d565b6040516020818303038152906040527f32458eed000000000000000000000000000000000000000000000000000000007bffffffffffffffffffffffffffffffffffffffffffffffffffffffff19166020820180517bffffffffffffffffffffffffffffffffffffffffffffffffffffffff8381831617835250505050610f88565b50565b5f8183610a9491906116b4565b905092915050565b610ada6040518060400160405280601881526020017f656e74657265642066696e616c697a652061756374696f6e0000000000000000815250610fa2565b600160095f6101000a81548160ff02191690831515021790555080600a819055505f805f5b600c80549050811015610ee457610b1581610955565b5f600b5f600c8481548110610b2d57610b2c6116e7565b5b905f5260205f20015f9054906101000a900473ffffffffffffffffffffffffffffffffffffffff1673ffffffffffffffffffffffffffffffffffffffff1673ffffffffffffffffffffffffffffffffffffffff1681526020019081526020015f209050610b9c815f0154610955565b610ba98160010154610955565b5f610bc3600a54836001015461094090919063ffffffff16565b90505f81835f015411610bd6575f610bed565b610bec82845f015461091690919063ffffffff16565b5b90505f811115610c7757600c8481548110610c0b57610c0a6116e7565b5b905f5260205f20015f9054906101000a900473ffffffffffffffffffffffffffffffffffffffff1673ffffffffffffffffffffffffffffffffffffffff166108fc8290811502906040515f60405180830381858888f19350505050158015610c75573d5f803e3d5ffd5b505b610d4c6040518060400160405280601a81526020017f42616c616e6365206f662061746b206f6620636f6e74726163740000000000008152505f8054906101000a900473ffffffffffffffffffffffffffffffffffffffff1673ffffffffffffffffffffffffffffffffffffffff166370a08231306040518263ffffffff1660e01b8152600401610d089190611714565b602060405180830381865afa158015610d23573d5f803e3d5ffd5b505050506040513d601f19601f82011682018060405250810190610d479190611757565b61103b565b5f8054906101000a900473ffffffffffffffffffffffffffffffffffffffff1673ffffffffffffffffffffffffffffffffffffffff1663a9059cbb600c8681548110610d9b57610d9a6116e7565b5b905f5260205f20015f9054906101000a900473ffffffffffffffffffffffffffffffffffffffff1685600101546040518363ffffffff1660e01b8152600401610de5929190611782565b6020604051808303815f875af1158015610e01573d5f803e3d5ffd5b505050506040513d601f19601f82011682018060405250810190610e2591906117d3565b507ff75d5c8724380d126d0ce1ef2c57b7e856e7fe00051f6184966b31323463cf12600c8581548110610e5b57610e5a6116e7565b5b905f5260205f20015f9054906101000a900473ffffffffffffffffffffffffffffffffffffffff16846001015483604051610e9893929190611581565b60405180910390a1610eb7836001015487610a8790919063ffffffff16565b9550610ecc8286610a8790919063ffffffff16565b94505050508080610edc906117fe565b915050610aff565b5060015f9054906101000a900473ffffffffffffffffffffffffffffffffffffffff1673ffffffffffffffffffffffffffffffffffffffff166108fc8290811502906040515f60405180830381858888f19350505050158015610f49573d5f803e3d5ffd5b507f45806e512b1f4f10e33e8b3cb64d1d11d998d8c554a95e0841fc1c701278bd5d600a54604051610f7b91906111ae565b60405180910390a1505050565b610f9f81610f976110d76110f6565b63ffffffff16565b50565b61103881604051602401610fb691906118bf565b6040516020818303038152906040527f41304fac000000000000000000000000000000000000000000000000000000007bffffffffffffffffffffffffffffffffffffffffffffffffffffffff19166020820180517bffffffffffffffffffffffffffffffffffffffffffffffffffffffff8381831617835250505050610f88565b50565b6110d382826040516024016110519291906118df565b6040516020818303038152906040527fb60e72cc000000000000000000000000000000000000000000000000000000007bffffffffffffffffffffffffffffffffffffffffffffffffffffffff19166020820180517bffffffffffffffffffffffffffffffffffffffffffffffffffffffff8381831617835250505050610f88565b5050565b5f6a636f6e736f6c652e6c6f6790505f80835160208501845afa505050565b611101819050919050565b61110961190d565b565b5f73ffffffffffffffffffffffffffffffffffffffff82169050919050565b5f6111348261110b565b9050919050565b6111448161112a565b82525050565b5f60208201905061115d5f83018461113b565b92915050565b5f8115159050919050565b61117781611163565b82525050565b5f6020820190506111905f83018461116e565b92915050565b5f819050919050565b6111a881611196565b82525050565b5f6020820190506111c15f83018461119f565b92915050565b5f819050919050565b5f6111ea6111e56111e08461110b565b6111c7565b61110b565b9050919050565b5f6111fb826111d0565b9050919050565b5f61120c826111f1565b9050919050565b61121c81611202565b82525050565b5f6020820190506112355f830184611213565b92915050565b5f80fd5b5f6112498261110b565b9050919050565b6112598161123f565b8114611263575f80fd5b50565b5f8135905061127481611250565b92915050565b5f6020828403121561128f5761128e61123b565b5b5f61129c84828501611266565b91505092915050565b5f6040820190506112b85f83018561119f565b6112c5602083018461119f565b9392505050565b5f82825260208201905092915050565b7f41756374696f6e2068617320616c726561647920656e6465642e0000000000005f82015250565b5f611310601a836112cc565b915061131b826112dc565b602082019050919050565b5f6020820190508181035f83015261133d81611304565b9050919050565b7f41756374696f6e20616c726561647920656e6465642e000000000000000000005f82015250565b5f6113786016836112cc565b915061138382611344565b602082019050919050565b5f6020820190508181035f8301526113a58161136c565b9050919050565b7f4e6f2065746865722073656e74000000000000000000000000000000000000005f82015250565b5f6113e0600d836112cc565b91506113eb826113ac565b602082019050919050565b5f6020820190508181035f83015261140d816113d4565b9050919050565b7f43757272656e74207072696365206973207a65726f00000000000000000000005f82015250565b5f6114486015836112cc565b915061145382611414565b602082019050919050565b5f6020820190508181035f8301526114758161143c565b9050919050565b7f496e73756666696369656e742066756e647320746f2062757920746f6b656e735f82015250565b5f6114b06020836112cc565b91506114bb8261147c565b602082019050919050565b5f6020820190508181035f8301526114dd816114a4565b9050919050565b7f52657175657374656420746f6b656e732065786365656420617661696c6162695f8201527f6c69747900000000000000000000000000000000000000000000000000000000602082015250565b5f61153e6024836112cc565b9150611549826114e4565b604082019050919050565b5f6020820190508181035f83015261156b81611532565b9050919050565b61157b8161123f565b82525050565b5f6060820190506115945f830186611572565b6115a1602083018561119f565b6115ae604083018461119f565b949350505050565b7f4e487b71000000000000000000000000000000000000000000000000000000005f52601160045260245ffd5b5f6115ed82611196565b91506115f883611196565b92508282039050818111156116105761160f6115b6565b5b92915050565b7f4e487b71000000000000000000000000000000000000000000000000000000005f52601260045260245ffd5b5f61164d82611196565b915061165883611196565b92508261166857611667611616565b5b828204905092915050565b5f61167d82611196565b915061168883611196565b925082820261169681611196565b915082820484148315176116ad576116ac6115b6565b5b5092915050565b5f6116be82611196565b91506116c983611196565b92508282019050808211156116e1576116e06115b6565b5b92915050565b7f4e487b71000000000000000000000000000000000000000000000000000000005f52603260045260245ffd5b5f6020820190506117275f830184611572565b92915050565b61173681611196565b8114611740575f80fd5b50565b5f815190506117518161172d565b92915050565b5f6020828403121561176c5761176b61123b565b5b5f61177984828501611743565b91505092915050565b5f6040820190506117955f830185611572565b6117a2602083018461119f565b9392505050565b6117b281611163565b81146117bc575f80fd5b50565b5f815190506117cd816117a9565b92915050565b5f602082840312156117e8576117e761123b565b5b5f6117f5848285016117bf565b91505092915050565b5f61180882611196565b91507fffffffffffffffffffffffffffffffffffffffffffffffffffffffffffffffff820361183a576118396115b6565b5b600182019050919050565b5f81519050919050565b5f5b8381101561186c578082015181840152602081019050611851565b5f8484015250505050565b5f601f19601f8301169050919050565b5f61189182611845565b61189b81856112cc565b93506118ab81856020860161184f565b6118b481611877565b840191505092915050565b5f6020820190508181035f8301526118d78184611887565b905092915050565b5f6040820190508181035f8301526118f78185611887565b9050611906602083018461119f565b9392505050565b7f4e487b71000000000000000000000000000000000000000000000000000000005f52605160045260245ffdfea2646970667358221220a5c6d526c4876793c661547622251d630fb6bf7be9c2168975991c0318dfc3cc64736f6c63430008150033",
  "immutableReferences": {},
  "source": "// SPDX-License-Identifier: MIT\npragma solidity ^0.8.0;\n\nimport \"./AuctionToken.sol\";\nimport \"@openzeppelin/contracts/utils/math/SafeMath.sol\";\nimport \"hardhat/console.sol\";\n\ncontract DutchAuction {\n    using SafeMath for uint;\n\n    AuctionToken public auctionToken;\n    address payable public seller;\n    uint public initialPrice;\n    uint public reservePrice;\n    uint public priceDecreaseRate;\n    uint public priceDecreaseInterval;\n    uint public auctionStartTime;\n    uint public auctionEndTime;\n    uint public totalTokens; // Total tokens available in the auction\n    bool public ended;\n    uint public finalPrice; // This will store the final confirmed price\n\n    struct Bidder {\n        uint investedAmount; // Amount invested by the bidder\n        uint tokensOwned;    // Tokens to be allocated to the bidder\n    }\n\n    mapping(address => Bidder) public bidders;\n    address[] private bidderAddresses;\n\n    event TokensPurchased(address bidder, uint amountInvested, uint tokensToBeAllocated);\n    event TokensDistributed(address bidder, uint tokensAllocated, uint amountRefunded);\n    event AuctionEnded(uint finalPrice);\n\n    constructor(\n        address _tokenAddress,\n        uint _initialPrice,\n        uint _reservePrice,\n        uint _priceDecreaseRate,\n        uint _priceDecreaseInterval,\n        uint _duration,\n        uint _totalTokens\n    ) {\n        auctionToken = AuctionToken(_tokenAddress);\n        seller = payable(msg.sender);\n        initialPrice = _initialPrice;\n        reservePrice = _reservePrice;\n        priceDecreaseRate = _priceDecreaseRate;\n        priceDecreaseInterval = _priceDecreaseInterval;\n        auctionStartTime = block.timestamp;\n        auctionEndTime = auctionStartTime + _duration;\n        totalTokens = _totalTokens;\n\n        // // Transfer approved tokens from the seller to the contract\n        // require(\n        //     auctionToken.transferFrom(seller, address(this), totalTokens),\n        //     \"Token transfer to contract failed\"\n        // );\n\n    }\n\n    // Calculate the current price based on time elapsed and decrease rate\n    function currentPrice() public view returns (uint) {\n        if (block.timestamp <= auctionEndTime) {\n            uint elapsed = block.timestamp.sub(auctionStartTime);\n            uint priceDecrease = (elapsed.div(priceDecreaseInterval)).mul(priceDecreaseRate);\n            uint _currentPrice = initialPrice > priceDecrease ? initialPrice.sub(priceDecrease) : reservePrice;\n            return _currentPrice > reservePrice ? _currentPrice : reservePrice;\n        } else {\n            return reservePrice;\n        }\n    }\n\n    // Function to buy tokens at the current price\n    function buyTokens() external payable {\n        console.log(block.timestamp);\n        require(block.timestamp <= auctionEndTime, \"Auction has already ended.\");\n        console.log(ended);\n        require(!ended, \"Auction already ended.\");\n        console.log(msg.value);\n        require(msg.value > 0, \"No ether sent\");  // Check if value is greater than zero\n        \n        uint _currentPrice = currentPrice();\n        console.log(_currentPrice);\n        require(_currentPrice > 0, \"Current price is zero\");  // Ensure current price is non-zero\n\n        uint tokensToBuy = msg.value.div(_currentPrice);\n        console.log(tokensToBuy);\n        require(tokensToBuy > 0, \"Insufficient funds to buy tokens\");\n\n        if (tokensToBuy >= totalTokens) {\n            tokensToBuy = totalTokens;\n        }\n\n        // Update bidder's record in the struct\n        if (bidders[msg.sender].investedAmount == 0 && bidders[msg.sender].tokensOwned == 0) {\n            bidderAddresses.push(msg.sender);\n        }\n        bidders[msg.sender].investedAmount = bidders[msg.sender].investedAmount.add(msg.value);\n        bidders[msg.sender].tokensOwned = bidders[msg.sender].tokensOwned.add(tokensToBuy);\n        totalTokens = totalTokens.sub(tokensToBuy);\n        console.log(totalTokens);\n        require(totalTokens >= 0, \"Requested tokens exceed availability\");\n\n        emit TokensPurchased(msg.sender, msg.value, tokensToBuy);\n\n        if (totalTokens == 0 || block.timestamp >= auctionEndTime) {\n            finalizeAuction(_currentPrice);\n        }\n    }\n\n    // Finalize the auction, distribute tokens and refund excess funds\n    function finalizeAuction(uint fP) private {\n        console.log(\"entered finalize auction\");\n        ended = true;\n        finalPrice = fP;\n\n        uint totalTokensSold = 0; // Track total tokens sold to bidders\n        uint totalRevenue = 0; // Track total revenue for seller\n\n        for (uint i = 0; i < bidderAddresses.length; i++) {\n            console.log(i);\n            Bidder storage bidder = bidders[bidderAddresses[i]];\n            console.log(bidder.investedAmount);\n            console.log(bidder.tokensOwned);\n\n            uint totalCost = bidder.tokensOwned.mul(finalPrice);\n            uint refund = bidder.investedAmount > totalCost ? bidder.investedAmount.sub(totalCost) : 0;\n\n            if (refund > 0) {\n                payable(bidderAddresses[i]).transfer(refund);\n            }\n\n            console.log(\"Balance of atk of contract\",auctionToken.balanceOf(address(this)));\n\n            auctionToken.transfer(bidderAddresses[i], bidder.tokensOwned);\n            emit TokensDistributed(bidderAddresses[i], bidder.tokensOwned, refund);\n\n            totalTokensSold = totalTokensSold.add(bidder.tokensOwned);\n            totalRevenue = totalRevenue.add(totalCost);\n        }\n\n        // Transfer the total revenue to the seller\n        payable(seller).transfer(totalRevenue);\n        emit AuctionEnded(finalPrice);\n    }\n\n}\n",
  "sourcePath": "/Users/tirthoza/Desktop/blockchain_project/dutch-auction/contracts/DutchAuction.sol",
  "compiler": {
    "name": "solc",
    "version": "0.8.21+commit.d9974bed.Emscripten.clang"
  },
  "schemaVersion": "3.4.16",
  "updatedAt": "2024-11-07T14:06:48.551Z",
  "networkType": "ethereum",
  "devdoc": {
    "kind": "dev",
    "methods": {},
    "version": 1
  },
  "userdoc": {
    "kind": "user",
    "methods": {},
    "version": 1
  }
}