{
  "contractName": "DutchAuction",
  "abi": [
    {
      "inputs": [
        {
          "internalType": "uint256",
          "name": "_initialPrice",
          "type": "uint256"
        },
        {
          "internalType": "uint256",
          "name": "_reservePrice",
          "type": "uint256"
        },
        {
          "internalType": "uint256",
          "name": "_priceDecreaseRate",
          "type": "uint256"
        },
        {
          "internalType": "uint256",
          "name": "_priceDecreaseInterval",
          "type": "uint256"
        },
        {
          "internalType": "uint256",
          "name": "_duration",
          "type": "uint256"
        },
        {
          "internalType": "uint256",
          "name": "_totalTokens",
          "type": "uint256"
        }
      ],
      "stateMutability": "nonpayable",
      "type": "constructor"
    },
    {
      "anonymous": false,
      "inputs": [],
      "name": "AuctionEnded",
      "type": "event"
    },
    {
      "anonymous": false,
      "inputs": [
        {
          "indexed": false,
          "internalType": "address",
          "name": "bidder",
          "type": "address"
        },
        {
          "indexed": false,
          "internalType": "uint256",
          "name": "amountRefunded",
          "type": "uint256"
        }
      ],
      "name": "ExcessRefunded",
      "type": "event"
    },
    {
      "anonymous": false,
      "inputs": [
        {
          "indexed": false,
          "internalType": "address",
          "name": "bidder",
          "type": "address"
        },
        {
          "indexed": false,
          "internalType": "uint256",
          "name": "amountInvested",
          "type": "uint256"
        },
        {
          "indexed": false,
          "internalType": "uint256",
          "name": "tokensAllocated",
          "type": "uint256"
        }
      ],
      "name": "TokensPurchased",
      "type": "event"
    },
    {
      "inputs": [],
      "name": "auctionEndTime",
      "outputs": [
        {
          "internalType": "uint256",
          "name": "",
          "type": "uint256"
        }
      ],
      "stateMutability": "view",
      "type": "function",
      "constant": true
    },
    {
      "inputs": [
        {
          "internalType": "address",
          "name": "",
          "type": "address"
        }
      ],
      "name": "bidders",
      "outputs": [
        {
          "internalType": "uint256",
          "name": "investedAmount",
          "type": "uint256"
        },
        {
          "internalType": "uint256",
          "name": "tokensOwned",
          "type": "uint256"
        }
      ],
      "stateMutability": "view",
      "type": "function",
      "constant": true
    },
    {
      "inputs": [],
      "name": "ended",
      "outputs": [
        {
          "internalType": "bool",
          "name": "",
          "type": "bool"
        }
      ],
      "stateMutability": "view",
      "type": "function",
      "constant": true
    },
    {
      "inputs": [],
      "name": "initialPrice",
      "outputs": [
        {
          "internalType": "uint256",
          "name": "",
          "type": "uint256"
        }
      ],
      "stateMutability": "view",
      "type": "function",
      "constant": true
    },
    {
      "inputs": [],
      "name": "priceDecreaseInterval",
      "outputs": [
        {
          "internalType": "uint256",
          "name": "",
          "type": "uint256"
        }
      ],
      "stateMutability": "view",
      "type": "function",
      "constant": true
    },
    {
      "inputs": [],
      "name": "priceDecreaseRate",
      "outputs": [
        {
          "internalType": "uint256",
          "name": "",
          "type": "uint256"
        }
      ],
      "stateMutability": "view",
      "type": "function",
      "constant": true
    },
    {
      "inputs": [],
      "name": "reservePrice",
      "outputs": [
        {
          "internalType": "uint256",
          "name": "",
          "type": "uint256"
        }
      ],
      "stateMutability": "view",
      "type": "function",
      "constant": true
    },
    {
      "inputs": [],
      "name": "seller",
      "outputs": [
        {
          "internalType": "address payable",
          "name": "",
          "type": "address"
        }
      ],
      "stateMutability": "view",
      "type": "function",
      "constant": true
    },
    {
      "inputs": [],
      "name": "totalTokens",
      "outputs": [
        {
          "internalType": "uint256",
          "name": "",
          "type": "uint256"
        }
      ],
      "stateMutability": "view",
      "type": "function",
      "constant": true
    },
    {
      "inputs": [],
      "name": "currentPrice",
      "outputs": [
        {
          "internalType": "uint256",
          "name": "",
          "type": "uint256"
        }
      ],
      "stateMutability": "view",
      "type": "function",
      "constant": true
    },
    {
      "inputs": [],
      "name": "buyTokens",
      "outputs": [],
      "stateMutability": "payable",
      "type": "function",
      "payable": true
    },
    {
      "inputs": [],
      "name": "finalize",
      "outputs": [],
      "stateMutability": "nonpayable",
      "type": "function"
    }
  ],
  "bytecode": "0x608060405234801562000010575f80fd5b506040516200101b3803806200101b8339818101604052810190620000369190620000f4565b335f806101000a81548173ffffffffffffffffffffffffffffffffffffffff021916908373ffffffffffffffffffffffffffffffffffffffff1602179055508560018190555084600281905550836003819055508260058190555081426200009f9190620001b9565b60048190555080600681905550505050505050620001f3565b5f80fd5b5f819050919050565b620000d081620000bc565b8114620000db575f80fd5b50565b5f81519050620000ee81620000c5565b92915050565b5f805f805f8060c08789031215620001115762000110620000b8565b5b5f6200012089828a01620000de565b96505060206200013389828a01620000de565b95505060406200014689828a01620000de565b94505060606200015989828a01620000de565b93505060806200016c89828a01620000de565b92505060a06200017f89828a01620000de565b9150509295509295509295565b7f4e487b71000000000000000000000000000000000000000000000000000000005f52601160045260245ffd5b5f620001c582620000bc565b9150620001d283620000bc565b9250828201905080821115620001ed57620001ec6200018c565b5b92915050565b610e1a80620002015f395ff3fe6080604052600436106100a6575f3560e01c80637e1c0c09116100635780637e1c0c09146101925780639d1b464a146101bc578063d0febe4c146101e6578063db2e1eed146101f0578063eecb24ec1461021a578063fcc8f79314610244576100a6565b806308551a53146100aa57806312fa6feb146100d45780631d0806ae146100fe5780634b449cba146101285780634bb278f3146101525780637cc58a9614610168575b5f80fd5b3480156100b5575f80fd5b506100be610281565b6040516100cb9190610922565b60405180910390f35b3480156100df575f80fd5b506100e86102a4565b6040516100f59190610955565b60405180910390f35b348015610109575f80fd5b506101126102b6565b60405161011f9190610986565b60405180910390f35b348015610133575f80fd5b5061013c6102bc565b6040516101499190610986565b60405180910390f35b34801561015d575f80fd5b506101666102c2565b005b348015610173575f80fd5b5061017c610402565b6040516101899190610986565b60405180910390f35b34801561019d575f80fd5b506101a6610408565b6040516101b39190610986565b60405180910390f35b3480156101c7575f80fd5b506101d061040e565b6040516101dd9190610986565b60405180910390f35b6101ee6104b0565b005b3480156101fb575f80fd5b506102046108b7565b6040516102119190610986565b60405180910390f35b348015610225575f80fd5b5061022e6108bd565b60405161023b9190610986565b60405180910390f35b34801561024f575f80fd5b5061026a600480360381019061026591906109de565b6108c3565b604051610278929190610a09565b60405180910390f35b5f8054906101000a900473ffffffffffffffffffffffffffffffffffffffff1681565b60075f9054906101000a900460ff1681565b60015481565b60045481565b60075f9054906101000a900460ff16610310576040517f08c379a000000000000000000000000000000000000000000000000000000000815260040161030790610a8a565b60405180910390fd5b5f8054906101000a900473ffffffffffffffffffffffffffffffffffffffff1673ffffffffffffffffffffffffffffffffffffffff163373ffffffffffffffffffffffffffffffffffffffff161461039d576040517f08c379a000000000000000000000000000000000000000000000000000000000815260040161039490610af2565b60405180910390fd5b5f8054906101000a900473ffffffffffffffffffffffffffffffffffffffff1673ffffffffffffffffffffffffffffffffffffffff166108fc4790811502906040515f60405180830381858888f193505050501580156103ff573d5f803e3d5ffd5b50565b60055481565b60065481565b5f60045442116104a7575f6004546005544261042a9190610b3d565b6104349190610b70565b90505f811015610449576001549150506104ad565b5f6003546005548361045b9190610bd0565b6104659190610c00565b90505f816001541161047957600254610488565b816001546104879190610b70565b5b9050600254811161049b5760025461049d565b805b93505050506104ad565b60025490505b90565b6004544211156104f5576040517f08c379a00000000000000000000000000000000000000000000000000000000081526004016104ec90610c8b565b60405180910390fd5b60075f9054906101000a900460ff1615610544576040517f08c379a000000000000000000000000000000000000000000000000000000000815260040161053b90610cf3565b60405180910390fd5b5f61054d61040e565b90505f813461055c9190610bd0565b90506006548111156105a3576040517f08c379a000000000000000000000000000000000000000000000000000000000815260040161059a90610d5b565b60405180910390fd5b6006548110610764575f826006546105bb9190610c00565b90505f81346105ca9190610b70565b90508160085f3373ffffffffffffffffffffffffffffffffffffffff1673ffffffffffffffffffffffffffffffffffffffff1681526020019081526020015f205f015f82825461061a9190610b3d565b9250508190555060065460085f3373ffffffffffffffffffffffffffffffffffffffff1673ffffffffffffffffffffffffffffffffffffffff1681526020019081526020015f206001015f8282546106729190610b3d565b925050819055505f600681905550600160075f6101000a81548160ff0219169083151502179055505f811115610720573373ffffffffffffffffffffffffffffffffffffffff166108fc8290811502906040515f60405180830381858888f193505050501580156106e5573d5f803e3d5ffd5b507f2c003babc9bab745cd44b6d4ba45ddf77bdbda4a59d52e1fc805dfb0d8895c7e3382604051610717929190610d88565b60405180910390a15b7f8fafebcaf9d154343dad25669bfa277f4fbacd7ac6b0c4fed522580e040a0f33338360065460405161075593929190610daf565b60405180910390a15050610863565b3460085f3373ffffffffffffffffffffffffffffffffffffffff1673ffffffffffffffffffffffffffffffffffffffff1681526020019081526020015f205f015f8282546107b29190610b3d565b925050819055508060085f3373ffffffffffffffffffffffffffffffffffffffff1673ffffffffffffffffffffffffffffffffffffffff1681526020019081526020015f206001015f8282546108089190610b3d565b925050819055508060065f8282546108209190610b70565b925050819055507f8fafebcaf9d154343dad25669bfa277f4fbacd7ac6b0c4fed522580e040a0f3333348360405161085a93929190610daf565b60405180910390a15b5f600654036108b357600160075f6101000a81548160ff0219169083151502179055507fa0e92984607195c326795751263414ee1074526323552e694c90ef2b99ae3f2960405160405180910390a15b5050565b60025481565b60035481565b6008602052805f5260405f205f91509050805f0154908060010154905082565b5f73ffffffffffffffffffffffffffffffffffffffff82169050919050565b5f61090c826108e3565b9050919050565b61091c81610902565b82525050565b5f6020820190506109355f830184610913565b92915050565b5f8115159050919050565b61094f8161093b565b82525050565b5f6020820190506109685f830184610946565b92915050565b5f819050919050565b6109808161096e565b82525050565b5f6020820190506109995f830184610977565b92915050565b5f80fd5b5f6109ad826108e3565b9050919050565b6109bd816109a3565b81146109c7575f80fd5b50565b5f813590506109d8816109b4565b92915050565b5f602082840312156109f3576109f261099f565b5b5f610a00848285016109ca565b91505092915050565b5f604082019050610a1c5f830185610977565b610a296020830184610977565b9392505050565b5f82825260208201905092915050565b7f41756374696f6e20686173206e6f7420656e646564207965742e0000000000005f82015250565b5f610a74601a83610a30565b9150610a7f82610a40565b602082019050919050565b5f6020820190508181035f830152610aa181610a68565b9050919050565b7f4f6e6c792073656c6c65722063616e2066696e616c697a652e000000000000005f82015250565b5f610adc601983610a30565b9150610ae782610aa8565b602082019050919050565b5f6020820190508181035f830152610b0981610ad0565b9050919050565b7f4e487b71000000000000000000000000000000000000000000000000000000005f52601160045260245ffd5b5f610b478261096e565b9150610b528361096e565b9250828201905080821115610b6a57610b69610b10565b5b92915050565b5f610b7a8261096e565b9150610b858361096e565b9250828203905081811115610b9d57610b9c610b10565b5b92915050565b7f4e487b71000000000000000000000000000000000000000000000000000000005f52601260045260245ffd5b5f610bda8261096e565b9150610be58361096e565b925082610bf557610bf4610ba3565b5b828204905092915050565b5f610c0a8261096e565b9150610c158361096e565b9250828202610c238161096e565b91508282048414831517610c3a57610c39610b10565b5b5092915050565b7f41756374696f6e2068617320616c726561647920656e6465642e0000000000005f82015250565b5f610c75601a83610a30565b9150610c8082610c41565b602082019050919050565b5f6020820190508181035f830152610ca281610c69565b9050919050565b7f41756374696f6e20616c726561647920656e6465642e000000000000000000005f82015250565b5f610cdd601683610a30565b9150610ce882610ca9565b602082019050919050565b5f6020820190508181035f830152610d0a81610cd1565b9050919050565b7f4e6f7420656e6f75676820746f6b656e7320617661696c61626c6500000000005f82015250565b5f610d45601b83610a30565b9150610d5082610d11565b602082019050919050565b5f6020820190508181035f830152610d7281610d39565b9050919050565b610d82816109a3565b82525050565b5f604082019050610d9b5f830185610d79565b610da86020830184610977565b9392505050565b5f606082019050610dc25f830186610d79565b610dcf6020830185610977565b610ddc6040830184610977565b94935050505056fea26469706673582212207c9dd9a41b9026a2095e975e1c6c0301dcd4c49e73734493dc7f57fed4b3aff764736f6c63430008150033",
  "immutableReferences": {},
  "source": "// SPDX-License-Identifier: MIT\npragma solidity ^0.8.0;\n\nimport \"./AuctionToken.sol\";\n\ncontract DutchAuction {\n    address payable public seller;\n    uint public initialPrice;\n    uint public reservePrice;\n    uint public priceDecreaseRate;\n    uint public auctionEndTime;\n    uint public priceDecreaseInterval;\n    uint public totalTokens;  // Total tokens available in the auction\n    bool public ended;\n\n    struct Bidder {\n        uint investedAmount; // Amount invested by the bidder\n        uint tokensOwned;    // Tokens allocated to the bidder\n    }\n\n    mapping(address => Bidder) public bidders;\n\n    event TokensPurchased(address bidder, uint amountInvested, uint tokensAllocated);\n    event ExcessRefunded(address bidder, uint amountRefunded);\n    event AuctionEnded();\n\n    constructor(\n        uint _initialPrice,\n        uint _reservePrice,\n        uint _priceDecreaseRate,\n        uint _priceDecreaseInterval,\n        uint _duration,\n        uint _totalTokens\n    ) {\n        seller = payable(msg.sender);\n        initialPrice = _initialPrice;\n        reservePrice = _reservePrice;\n        priceDecreaseRate = _priceDecreaseRate;\n        priceDecreaseInterval = _priceDecreaseInterval;\n        auctionEndTime = block.timestamp + _duration;\n        totalTokens = _totalTokens;\n    }\n\n    // Calculate the current price based on time elapsed and decrease rate\n    function currentPrice() public view returns (uint) {\n        if (block.timestamp <= auctionEndTime) {\n            uint elapsed = block.timestamp + priceDecreaseInterval - auctionEndTime; // Adjust this line to calculate elapsed time since auction start properly.\n            if (elapsed < 0) {\n                return initialPrice; // Return initial price if the auction has not started yet\n            }\n            uint priceDecrease = (elapsed / priceDecreaseInterval) * priceDecreaseRate;\n            uint _currentPrice = initialPrice > priceDecrease ? initialPrice - priceDecrease : reservePrice;\n            return _currentPrice > reservePrice ? _currentPrice : reservePrice;\n        } else {\n            return reservePrice;\n        }\n    }\n\n\n    // Function to buy tokens at the current price or reserve price when auction ends\n    function buyTokens() external payable {\n        require(block.timestamp <= auctionEndTime, \"Auction has already ended.\");\n        require(!ended, \"Auction already ended.\");\n        \n        uint _currentPrice = currentPrice();\n        uint tokensToBuy = msg.value / _currentPrice;\n        require(tokensToBuy <= totalTokens, \"Not enough tokens available\");\n\n        if (tokensToBuy >= totalTokens) {\n            uint totalCost = totalTokens * _currentPrice;\n            uint refundAmount = msg.value - totalCost;\n            bidders[msg.sender].investedAmount += totalCost;\n            bidders[msg.sender].tokensOwned += totalTokens;\n            totalTokens = 0;\n            ended = true;\n\n            if (refundAmount > 0) {\n                payable(msg.sender).transfer(refundAmount);\n                emit ExcessRefunded(msg.sender, refundAmount);\n            }\n            emit TokensPurchased(msg.sender, totalCost, totalTokens);\n        } else {\n            bidders[msg.sender].investedAmount += msg.value;\n            bidders[msg.sender].tokensOwned += tokensToBuy;\n            totalTokens -= tokensToBuy;\n            emit TokensPurchased(msg.sender, msg.value, tokensToBuy);\n        }\n\n        if (totalTokens == 0) {\n            ended = true;\n            emit AuctionEnded();\n        }\n    }\n\n    // Finalize auction and transfer funds\n    function finalize() external {\n        require(ended, \"Auction has not ended yet.\");\n        require(msg.sender == seller, \"Only seller can finalize.\");\n        \n        seller.transfer(address(this).balance);\n    }\n}\n",
  "sourcePath": "/Users/tirthoza/Desktop/blockchain_project/dutch-auction/contracts/DutchAuction.sol",
  "compiler": {
    "name": "solc",
    "version": "0.8.21+commit.d9974bed.Emscripten.clang"
  },
  "schemaVersion": "3.4.16",
  "updatedAt": "2024-11-01T21:27:57.014Z",
  "networkType": "ethereum",
  "devdoc": {
    "kind": "dev",
    "methods": {},
    "version": 1
  },
  "userdoc": {
    "kind": "user",
    "methods": {},
    "version": 1
  }
}